{
  "abi": [
    {
      "type": "constructor",
      "inputs": [
        {
          "name": "_coordinator",
          "type": "address",
          "internalType": "address"
        },
        {
          "name": "_usdc",
          "type": "address",
          "internalType": "address"
        },
        {
          "name": "_swapRouter",
          "type": "address",
          "internalType": "address"
        },
        {
          "name": "_factory",
          "type": "address",
          "internalType": "address"
        },
        {
          "name": "_positionManager",
          "type": "address",
          "internalType": "address"
        },
        {
          "name": "_quoterV2",
          "type": "address",
          "internalType": "address"
        }
      ],
      "stateMutability": "nonpayable"
    },
    {
      "type": "receive",
      "stateMutability": "payable"
    },
    {
      "type": "function",
      "name": "COORDINATOR",
      "inputs": [],
      "outputs": [
        {
          "name": "",
          "type": "address",
          "internalType": "contract IADCSCoordinator"
        }
      ],
      "stateMutability": "view"
    },
    {
      "type": "function",
      "name": "USDC",
      "inputs": [],
      "outputs": [
        {
          "name": "",
          "type": "address",
          "internalType": "address"
        }
      ],
      "stateMutability": "view"
    },
    {
      "type": "function",
      "name": "addLiquidity",
      "inputs": [
        {
          "name": "positionTokenId",
          "type": "uint256",
          "internalType": "uint256"
        },
        {
          "name": "amountMore",
          "type": "uint256",
          "internalType": "uint256"
        },
        {
          "name": "poolAddress",
          "type": "address",
          "internalType": "address"
        },
        {
          "name": "pathToken0",
          "type": "bytes",
          "internalType": "bytes"
        },
        {
          "name": "pathToken1",
          "type": "bytes",
          "internalType": "bytes"
        }
      ],
      "outputs": [],
      "stateMutability": "nonpayable"
    },
    {
      "type": "function",
      "name": "addPoolsToWhitelist",
      "inputs": [
        {
          "name": "pools",
          "type": "address[]",
          "internalType": "address[]"
        }
      ],
      "outputs": [],
      "stateMutability": "nonpayable"
    },
    {
      "type": "function",
      "name": "arrayUserWhitelistPools",
      "inputs": [
        {
          "name": "",
          "type": "address",
          "internalType": "address"
        },
        {
          "name": "",
          "type": "uint256",
          "internalType": "uint256"
        }
      ],
      "outputs": [
        {
          "name": "",
          "type": "address",
          "internalType": "address"
        }
      ],
      "stateMutability": "view"
    },
    {
      "type": "function",
      "name": "changeConfig",
      "inputs": [
        {
          "name": "_usdc",
          "type": "address",
          "internalType": "address"
        },
        {
          "name": "_swapRouter02",
          "type": "address",
          "internalType": "address"
        },
        {
          "name": "_factory",
          "type": "address",
          "internalType": "address"
        },
        {
          "name": "_positionManager",
          "type": "address",
          "internalType": "address"
        },
        {
          "name": "_quoterV2",
          "type": "address",
          "internalType": "address"
        }
      ],
      "outputs": [],
      "stateMutability": "nonpayable"
    },
    {
      "type": "function",
      "name": "factory",
      "inputs": [],
      "outputs": [
        {
          "name": "",
          "type": "address",
          "internalType": "contract IUniswapV3Factory"
        }
      ],
      "stateMutability": "view"
    },
    {
      "type": "function",
      "name": "getInfoRequest",
      "inputs": [
        {
          "name": "requestId",
          "type": "uint256",
          "internalType": "uint256"
        }
      ],
      "outputs": [
        {
          "name": "",
          "type": "tuple",
          "internalType": "struct SmartFarming.InfoRequest",
          "components": [
            {
              "name": "user",
              "type": "address",
              "internalType": "address"
            },
            {
              "name": "positionTokenId",
              "type": "uint256",
              "internalType": "uint256"
            },
            {
              "name": "amount",
              "type": "uint256",
              "internalType": "uint256"
            },
            {
              "name": "pathToken0Position",
              "type": "bytes",
              "internalType": "bytes"
            },
            {
              "name": "pathToken1Position",
              "type": "bytes",
              "internalType": "bytes"
            }
          ]
        }
      ],
      "stateMutability": "view"
    },
    {
      "type": "function",
      "name": "getUserWhitelistedPools",
      "inputs": [],
      "outputs": [
        {
          "name": "",
          "type": "address[]",
          "internalType": "address[]"
        }
      ],
      "stateMutability": "view"
    },
    {
      "type": "function",
      "name": "mapUserWhitelistPools",
      "inputs": [
        {
          "name": "",
          "type": "address",
          "internalType": "address"
        },
        {
          "name": "",
          "type": "address",
          "internalType": "address"
        }
      ],
      "outputs": [
        {
          "name": "",
          "type": "bool",
          "internalType": "bool"
        }
      ],
      "stateMutability": "view"
    },
    {
      "type": "function",
      "name": "owner",
      "inputs": [],
      "outputs": [
        {
          "name": "",
          "type": "address",
          "internalType": "address"
        }
      ],
      "stateMutability": "view"
    },
    {
      "type": "function",
      "name": "positionManager",
      "inputs": [],
      "outputs": [
        {
          "name": "",
          "type": "address",
          "internalType": "contract INonfungiblePositionManager"
        }
      ],
      "stateMutability": "view"
    },
    {
      "type": "function",
      "name": "quoterV2",
      "inputs": [],
      "outputs": [
        {
          "name": "",
          "type": "address",
          "internalType": "contract IQuoterV2"
        }
      ],
      "stateMutability": "view"
    },
    {
      "type": "function",
      "name": "rawFulfillDataRequest",
      "inputs": [
        {
          "name": "requestId",
          "type": "uint256",
          "internalType": "uint256"
        },
        {
          "name": "response",
          "type": "bytes",
          "internalType": "bytes"
        }
      ],
      "outputs": [],
      "stateMutability": "nonpayable"
    },
    {
      "type": "function",
      "name": "removeLiquidity",
      "inputs": [
        {
          "name": "positionTokenId",
          "type": "uint256",
          "internalType": "uint256"
        },
        {
          "name": "amountLiquidity",
          "type": "uint128",
          "internalType": "uint128"
        }
      ],
      "outputs": [],
      "stateMutability": "nonpayable"
    },
    {
      "type": "function",
      "name": "removeLiquidityAll",
      "inputs": [
        {
          "name": "positionTokenId",
          "type": "uint256",
          "internalType": "uint256"
        }
      ],
      "outputs": [],
      "stateMutability": "nonpayable"
    },
    {
      "type": "function",
      "name": "removeLiquidityAllToUSDC",
      "inputs": [
        {
          "name": "positionTokenId",
          "type": "uint256",
          "internalType": "uint256"
        },
        {
          "name": "pathToken0",
          "type": "bytes",
          "internalType": "bytes"
        },
        {
          "name": "pathToken1",
          "type": "bytes",
          "internalType": "bytes"
        }
      ],
      "outputs": [],
      "stateMutability": "nonpayable"
    },
    {
      "type": "function",
      "name": "removeLiquidityToUSDC",
      "inputs": [
        {
          "name": "positionTokenId",
          "type": "uint256",
          "internalType": "uint256"
        },
        {
          "name": "amountLiquidity",
          "type": "uint128",
          "internalType": "uint128"
        },
        {
          "name": "pathToken0",
          "type": "bytes",
          "internalType": "bytes"
        },
        {
          "name": "pathToken1",
          "type": "bytes",
          "internalType": "bytes"
        }
      ],
      "outputs": [],
      "stateMutability": "nonpayable"
    },
    {
      "type": "function",
      "name": "removePoolsFromWhitelist",
      "inputs": [
        {
          "name": "pools",
          "type": "address[]",
          "internalType": "address[]"
        }
      ],
      "outputs": [],
      "stateMutability": "nonpayable"
    },
    {
      "type": "function",
      "name": "renounceOwnership",
      "inputs": [],
      "outputs": [],
      "stateMutability": "nonpayable"
    },
    {
      "type": "function",
      "name": "requestIdUser",
      "inputs": [
        {
          "name": "",
          "type": "uint256",
          "internalType": "uint256"
        }
      ],
      "outputs": [
        {
          "name": "user",
          "type": "address",
          "internalType": "address"
        },
        {
          "name": "positionTokenId",
          "type": "uint256",
          "internalType": "uint256"
        },
        {
          "name": "amount",
          "type": "uint256",
          "internalType": "uint256"
        },
        {
          "name": "pathToken0Position",
          "type": "bytes",
          "internalType": "bytes"
        },
        {
          "name": "pathToken1Position",
          "type": "bytes",
          "internalType": "bytes"
        }
      ],
      "stateMutability": "view"
    },
    {
      "type": "function",
      "name": "requestSmartFarming",
      "inputs": [
        {
          "name": "jobId",
          "type": "bytes32",
          "internalType": "bytes32"
        },
        {
          "name": "callbackGasLimit",
          "type": "uint256",
          "internalType": "uint256"
        },
        {
          "name": "positionTokenId",
          "type": "uint256",
          "internalType": "uint256"
        },
        {
          "name": "amount",
          "type": "uint256",
          "internalType": "uint256"
        },
        {
          "name": "pathToken0Position",
          "type": "bytes",
          "internalType": "bytes"
        },
        {
          "name": "pathToken1Position",
          "type": "bytes",
          "internalType": "bytes"
        }
      ],
      "outputs": [
        {
          "name": "requestId",
          "type": "uint256",
          "internalType": "uint256"
        }
      ],
      "stateMutability": "nonpayable"
    },
    {
      "type": "function",
      "name": "setSlippageSwap",
      "inputs": [
        {
          "name": "_slippage",
          "type": "uint256",
          "internalType": "uint256"
        }
      ],
      "outputs": [],
      "stateMutability": "nonpayable"
    },
    {
      "type": "function",
      "name": "swapRouter02",
      "inputs": [],
      "outputs": [
        {
          "name": "",
          "type": "address",
          "internalType": "contract ISwapRouter02"
        }
      ],
      "stateMutability": "view"
    },
    {
      "type": "function",
      "name": "transferOwnership",
      "inputs": [
        {
          "name": "newOwner",
          "type": "address",
          "internalType": "address"
        }
      ],
      "outputs": [],
      "stateMutability": "nonpayable"
    },
    {
      "type": "function",
      "name": "userSlippageSwap",
      "inputs": [
        {
          "name": "",
          "type": "address",
          "internalType": "address"
        }
      ],
      "outputs": [
        {
          "name": "",
          "type": "uint256",
          "internalType": "uint256"
        }
      ],
      "stateMutability": "view"
    },
    {
      "type": "function",
      "name": "usersFarming",
      "inputs": [
        {
          "name": "",
          "type": "uint256",
          "internalType": "uint256"
        }
      ],
      "outputs": [
        {
          "name": "",
          "type": "address",
          "internalType": "address"
        }
      ],
      "stateMutability": "view"
    },
    {
      "type": "function",
      "name": "withdrawAllAssets",
      "inputs": [
        {
          "name": "token",
          "type": "address",
          "internalType": "address"
        }
      ],
      "outputs": [],
      "stateMutability": "nonpayable"
    },
    {
      "type": "function",
      "name": "withdrawAssets",
      "inputs": [
        {
          "name": "token",
          "type": "address",
          "internalType": "address"
        },
        {
          "name": "amount",
          "type": "uint256",
          "internalType": "uint256"
        }
      ],
      "outputs": [],
      "stateMutability": "nonpayable"
    },
    {
      "type": "event",
      "name": "AddedPoolsToWhitelist",
      "inputs": [
        {
          "name": "user",
          "type": "address",
          "indexed": true,
          "internalType": "address"
        },
        {
          "name": "pools",
          "type": "address[]",
          "indexed": true,
          "internalType": "address[]"
        }
      ],
      "anonymous": false
    },
    {
      "type": "event",
      "name": "Deposited",
      "inputs": [
        {
          "name": "user",
          "type": "address",
          "indexed": true,
          "internalType": "address"
        },
        {
          "name": "amount",
          "type": "uint256",
          "indexed": false,
          "internalType": "uint256"
        }
      ],
      "anonymous": false
    },
    {
      "type": "event",
      "name": "FarmingStarted",
      "inputs": [
        {
          "name": "user",
          "type": "address",
          "indexed": true,
          "internalType": "address"
        },
        {
          "name": "pool",
          "type": "address",
          "indexed": true,
          "internalType": "address"
        }
      ],
      "anonymous": false
    },
    {
      "type": "event",
      "name": "FarmingStopped",
      "inputs": [
        {
          "name": "user",
          "type": "address",
          "indexed": true,
          "internalType": "address"
        },
        {
          "name": "pool",
          "type": "address",
          "indexed": true,
          "internalType": "address"
        }
      ],
      "anonymous": false
    },
    {
      "type": "event",
      "name": "LiquidityAddedMore",
      "inputs": [
        {
          "name": "user",
          "type": "address",
          "indexed": true,
          "internalType": "address"
        },
        {
          "name": "pool",
          "type": "address",
          "indexed": true,
          "internalType": "address"
        },
        {
          "name": "amount",
          "type": "uint256",
          "indexed": false,
          "internalType": "uint256"
        }
      ],
      "anonymous": false
    },
    {
      "type": "event",
      "name": "OwnershipTransferred",
      "inputs": [
        {
          "name": "previousOwner",
          "type": "address",
          "indexed": true,
          "internalType": "address"
        },
        {
          "name": "newOwner",
          "type": "address",
          "indexed": true,
          "internalType": "address"
        }
      ],
      "anonymous": false
    },
    {
      "type": "event",
      "name": "RemovedPoolsFromWhitelist",
      "inputs": [
        {
          "name": "user",
          "type": "address",
          "indexed": true,
          "internalType": "address"
        },
        {
          "name": "pools",
          "type": "address[]",
          "indexed": true,
          "internalType": "address[]"
        }
      ],
      "anonymous": false
    },
    {
      "type": "event",
      "name": "Withdrawn",
      "inputs": [
        {
          "name": "user",
          "type": "address",
          "indexed": true,
          "internalType": "address"
        },
        {
          "name": "amount",
          "type": "uint256",
          "indexed": false,
          "internalType": "uint256"
        }
      ],
      "anonymous": false
    },
    {
      "type": "error",
      "name": "AddressEmptyCode",
      "inputs": [
        {
          "name": "target",
          "type": "address",
          "internalType": "address"
        }
      ]
    },
    {
      "type": "error",
      "name": "AddressInsufficientBalance",
      "inputs": [
        {
          "name": "account",
          "type": "address",
          "internalType": "address"
        }
      ]
    },
    {
      "type": "error",
      "name": "FailedInnerCall",
      "inputs": []
    },
    {
      "type": "error",
      "name": "InsufficientAllowance",
      "inputs": [
        {
          "name": "code",
          "type": "string",
          "internalType": "string"
        },
        {
          "name": "amount",
          "type": "uint256",
          "internalType": "uint256"
        }
      ]
    },
    {
      "type": "error",
      "name": "InsufficientBalance",
      "inputs": [
        {
          "name": "code",
          "type": "string",
          "internalType": "string"
        },
        {
          "name": "amount",
          "type": "uint256",
          "internalType": "uint256"
        }
      ]
    },
    {
      "type": "error",
      "name": "NotOwnerPosition",
      "inputs": []
    },
    {
      "type": "error",
      "name": "OnlyCoordinatorCanFulfill",
      "inputs": [
        {
          "name": "have",
          "type": "address",
          "internalType": "address"
        },
        {
          "name": "want",
          "type": "address",
          "internalType": "address"
        }
      ]
    },
    {
      "type": "error",
      "name": "OwnableInvalidOwner",
      "inputs": [
        {
          "name": "owner",
          "type": "address",
          "internalType": "address"
        }
      ]
    },
    {
      "type": "error",
      "name": "OwnableUnauthorizedAccount",
      "inputs": [
        {
          "name": "account",
          "type": "address",
          "internalType": "address"
        }
      ]
    },
    {
      "type": "error",
      "name": "OwnerNotApprovedForThisContract",
      "inputs": []
    },
    {
      "type": "error",
      "name": "PoolNotInWhitelist",
      "inputs": []
    },
    {
      "type": "error",
      "name": "ReentrancyGuardReentrantCall",
      "inputs": []
    },
    {
      "type": "error",
      "name": "SafeERC20FailedOperation",
      "inputs": [
        {
          "name": "token",
          "type": "address",
          "internalType": "address"
        }
      ]
    }
  ],
  "bytecode": {
    "object": "0x60a0604090808252346200030a5760c081620041e080380380916200002582856200033e565b8339810103126200030a576200003b8162000362565b60206200004a81840162000362565b916200005885850162000362565b90620000676060860162000362565b906200008460a06200007c6080890162000362565b970162000362565b6001600160a01b039182166080528751663ab4b73a191a9b60c91b8682019081526007825290620000b5816200030e565b519020965f97885287865288882063ffffffff199063e9d346288282541617905589518781019063189bdbdb60e21b825260048152620000f5816200030e565b5190208952888752898920634b9c30838282541617905589518781019066313cba32b9999960c91b8252600781526200012e816200030e565b5190208952888752898920631228cabf8282541617905589518781019064627974657360d81b82526005815262000165816200030e565b51902089528887528989206329ba70c4828254161790558951878101906c1cdd1c9a5b99d05b99189bdbdb609a1b8252600d8152620001a4816200030e565b5190208952888752632f44d4498a8a20918254161790553315620002f25782889492818b9381808b9a986001549d8e98600160a01b6001900319998a33911617600155519e8f9c8333921690807f8be0079c531659141344cd1fd0a4f28419497f9722a3daafe3b4186f6b6457e091a3600160025516988988600354161760035516968787600454161760045516856006541617600655168360055416176005551690600754161760075563095ea7b360e01b835260048301525f19602483015281865a92604493f18015620002e857620002a7575b8351613e68908162000378823960805181818161045101528181610ed601528181611c03015261236a0152f35b81813d8311620002e0575b620002be81836200033e565b81010312620002dc575180151503620002d95780806200027a565b80fd5b5080fd5b503d620002b2565b84513d85823e3d90fd5b8851631e4fbdf760e01b815260048101899052602490fd5b5f80fd5b604081019081106001600160401b038211176200032a57604052565b634e487b7160e01b5f52604160045260245ffd5b601f909101601f19168101906001600160401b038211908210176200032a57604052565b51906001600160a01b03821682036200030a5756fe6080604052600436101561001a575b3615610018575f80fd5b005b5f3560e01c806310691775146101e957806319e2cd2f146101e457806322d190f2146101df5780633b2bcbf1146101da57806345b59b77146101d557806346723c6d146101d05780634fa1bf25146101cb5780635354c8f1146101c6578063684b737e146101c1578063715018a6146101bc578063791b98bc146101b75780637e69a00d146101b25780637eaf1116146101ad57806389a30271146101a85780638da5cb5b146101a357806390b5bafc1461019e578063911757ba14610199578063a49e83c714610194578063aca18ba51461018f578063ae0ddecc1461018a578063b46ed2fd14610185578063c45a015514610180578063dd9ff6981461017b578063e20dccb214610176578063e3b5f5a514610171578063ef6af8d61461016c578063efb65e8914610167578063f278fd63146101625763f2fde38b0361000e57611e39565b611da0565b611d3e565b611b43565b611acb565b611a60565b611a06565b6119de565b6119a3565b611869565b611805565b6116ee565b6116c6565b611630565b611531565b611509565b6114e1565b611350565b611328565b6112c8565b61126d565b61121a565b61112f565b61104c565b610fa9565b610ec1565b610590565b61041e565b610203565b6001600160a01b038116036101ff57565b5f80fd5b346101ff5760203660031901126101ff57600435610220816101ee565b610228613c69565b6001600160a01b039081168061027f57505f808061025f61025382956001541660018060a01b031690565b6001600160a01b031690565b4790828215610276575bf11561027157005b611ff2565b506108fc610269565b6001546040516370a0823160e01b81523060048201529216602083602481855afa91821561027157610018935f936102b8575b50613c95565b6102da91935060203d81116102e1575b6102d2818361032f565b810190611ffd565b915f6102b2565b503d6102c8565b634e487b7160e01b5f52604160045260245ffd5b60a081019081106001600160401b0382111761031757604052565b6102e8565b6001600160401b03811161031757604052565b90601f801991011681019081106001600160401b0382111761031757604052565b6040519060c082018281106001600160401b0382111761031757604052565b6040519061037c826102fc565b565b6040519061016082018281106001600160401b0382111761031757604052565b60405190608082018281106001600160401b0382111761031757604052565b6001600160401b03811161031757601f01601f191660200190565b81601f820112156101ff578035906103ef826103bd565b926103fd604051948561032f565b828452602083830101116101ff57815f926020809301838601378301015290565b346101ff5760403660031901126101ff576001600160401b036024358181116101ff5761044f9036906004016103d8565b7f00000000000000000000000000000000000000000000000000000000000000006001600160a01b0316338190036105635750805181016020918282019083818403126101ff57838101518581116101ff5760c09101809303126101ff576104b5610350565b92808301518581116101ff5782826104cf928601016123fe565b84526104dd60408401611fd2565b818501526104ed60608401612440565b60408501526104fe60808401612440565b606085015260a08301518581116101ff57828261051d928601016123fe565b608085015260c08301519485116101ff576100189461053d9301016123fe565b60a082015261055e6105596004355f52600b60205260405f2090565b6123bc565b61251b565b60405163073e64fd60e21b81523360048201526001600160a01b03919091166024820152604490fd5b0390fd5b346101ff5760a03660031901126101ff576004356044356105b0816101ee565b6001600160401b03906064358281116101ff576105d19036906004016103d8565b916084359081116101ff576105ea9036906004016103d8565b9083151580610e42575b610e305760035461060d906001600160a01b0316610253565b6040516370a0823160e01b81523360048201526001600160a01b03929082841690602081602481855afa908115610271575f91610e11575b5060243511610df457604051636eb1769f60e11b815233600482015230602482015290602090829060449082905afa908115610271575f91610dd5575b5060243511610db8578291602435610da1575b50604051630dfe168160e01b8152911694602082600481895afa918215610271575f92610d80575b5060405163d21220a760e01b8152906020826004818a5afa918215610271575f92610d4f575b5060405163ddca3f4360e01b8152956020876004818b5afa968715610271575f97610d1e575b5060035460243560011c91908290610729906001600160a01b0316610253565b86881603610d0f579050955b60035461074a906001600160a01b0316610253565b84871603610cff5750935b60055461076a906001600160a01b0316610253565b604051636eb1769f60e11b81523060048201526001600160a01b03821660248201526020816044818987165afa80156102715788915f91610ce0575b5010610c85575b506005546107c3906001600160a01b0316610253565b604051636eb1769f60e11b81523060048201526001600160a01b03821660248201529091906020816044818886165afa80156102715787915f91610c66575b5010610bf1575b505080610ad75750604051633850c7bd60e01b81529260e0846004818a5afa938415610271575f94610aa0575b506040516334324e9f60e21b8152946020866004818b5afa958615610271575f976080976109739761091b938b92610a5f575b50610896610890610887836108818661089b96612852565b90612881565b6108818561289e565b9261282d565b612864565b90620d89e719808260020b12610a57575b50620d89e8808360020b13610a4d575b5061090861091292936108fc6108d1426123a0565b996108ec6108dd61037e565b6001600160a01b03909d168d52565b6001600160a01b031660208c0152565b62ffffff1660408a0152565b60020b6060880152565b60020b85880152565b60a084015260c083015260e08201859052610100820185905230610120830152610140820152600554610956906001600160a01b0316610253565b90604051948580948193634418b22b60e11b8352600483016128de565b03925af1908115610271575f91610a1c575b5060055461099b906001600160a01b0316610253565b803b156101ff57604051632142170760e11b815230600482015233602482015260448101929092525f908290606490829084905af1801561027157610a03575b50337fcd977a33d1b513eef5082a3e4ba733270eda2daa6b1908a552511708d1d1cb945f80a3005b80610a10610a169261031c565b80610eb7565b5f6109db565b610a3d915060803d8111610a46575b610a35818361032f565b8101906128b3565b5050505f610985565b503d610a2b565b91506109086108bc565b90505f6108ac565b61089b919250610890610887610a8f6108969360203d602011610a99575b610a87818361032f565b810190612819565b9493505050610869565b503d610a7d565b610ac291945060e03d8111610ad0575b610aba818361032f565b8101906127b2565b50505050509050925f610836565b503d610ab0565b9150505f9350606092610b8192610aed426123a0565b91610af6610350565b938452602084015260408301528382018590526080820185905260a0820152600554610b2a906001600160a01b0316610253565b6040805163219f5d1760e01b81528351600482015260208401516024820152908301516044820152606083015160648201526080830151608482015260a09092015160a483015290938492839190829060c4820190565b03925af1801561027157610bc3575b50604051602435815233907f625a0caccfd887185bf317fe606cf2c11f5250a80ad98259934f03d47d2b2f7d90602090a3005b610be39060603d8111610bea575b610bdb818361032f565b81019061278e565b5050610b90565b503d610bd1565b60405163095ea7b360e01b81526001600160a01b039290921660048301525f196024830152602090829060449082905f9088165af1801561027157610c37575b80610809565b610c589060203d602011610c5f575b610c50818361032f565b81019061277a565b505f610c31565b503d610c46565b610c7f915060203d6020116102e1576102d2818361032f565b5f610802565b60405163095ea7b360e01b81526001600160a01b039190911660048201525f1960248201526020816044815f8987165af1801561027157156107ad57610cd99060203d602011610c5f57610c50818361032f565b505f6107ad565b610cf9915060203d6020116102e1576102d2818361032f565b5f6107a6565b90610d09916132d6565b93610755565b610d18916132d6565b95610735565b610d4191975060203d602011610d48575b610d39818361032f565b810190612759565b955f610709565b503d610d2f565b610d7291925060203d602011610d79575b610d6a818361032f565b810190611fdd565b905f6106e3565b503d610d60565b610d9a91925060203d602011610d7957610d6a818361032f565b905f6106bd565b610db2906024359030903390613ce4565b5f610695565b604051633bb74ecf60e11b81528061058c60243560048301612734565b610dee915060203d6020116102e1576102d2818361032f565b5f610682565b6040516332f58dad60e21b81528061058c60243560048301612734565b610e2a915060203d6020116102e1576102d2818361032f565b5f610645565b60405163e426911b60e01b8152600490fd5b50600554610e58906001600160a01b0316610253565b60405163020604bf60e21b81526004810186905290602090829060249082905afa908115610271575f91610e99575b506001600160a01b03163014156105f4565b610eb1915060203d8111610d7957610d6a818361032f565b5f610e87565b5f9103126101ff57565b346101ff575f3660031901126101ff576040517f00000000000000000000000000000000000000000000000000000000000000006001600160a01b03168152602090f35b5f5b838110610f165750505f910152565b8181015183820152602001610f07565b90602091610f3f81518092818552858086019101610f05565b601f01601f1916010190565b90610fa6916020815260018060a01b03825116602082015260208201516040820152604082015160608201526080610f91606084015160a08385015260c0840190610f26565b9201519060a0601f1982850301910152610f26565b90565b346101ff5760203660031901126101ff576110486040606060808251610fce816102fc565b5f81525f60208201525f84820152828082015201526004355f52600b602052805f20906110396004825193611002856102fc565b80546001600160a01b031685526001810154602086015260028101548486015261102e60038201611591565b606086015201611591565b60808301525191829182610f4b565b0390f35b346101ff5760203660031901126101ff5760055460405163133f757160e31b815260048035908201819052610180928390839060249082906001600160a01b03165afa91821561027157610018935f936110a8575b50506134a8565b6110c8929350803d106110dc575b6110c0818361032f565b810190612478565b505050509650505050505050905f806110a1565b503d6110b6565b9060206003198301126101ff576004356001600160401b03928382116101ff57806023830112156101ff5781600401359384116101ff5760248460051b830101116101ff576024019190565b346101ff5761113d366110e3565b5f5b818110611177575061115091611f2d565b337f2798f7857e6e4499ec7cbff3a84f44143f485417ff7bcc34acb4623154dfac205f80a3005b8061118661120f928486611eeb565b35611190816101ee565b335f52600960205260ff6111b78260405f209060018060a01b03165f5260205260405f2090565b541661121457335f90815260096020526040902061120a91906111ec9082905b9060018060a01b03165f5260205260405f2090565b805460ff19166001179055335f908152600a60205260409020611f05565b611ed8565b61113f565b50611ed8565b346101ff5760203660031901126101ff57335f52600860205260043560405f20555f80f35b634e487b7160e01b5f52603260045260245ffd5b8054821015611268575f5260205f2001905f90565b61123f565b346101ff5760403660031901126101ff5760043561128a816101ee565b6024359060018060a01b038091165f52600a60205260405f2080548310156101ff576020926112b891611253565b9190546040519260031b1c168152f35b346101ff575f80600319360112611325576112e1613c69565b600180546001600160a01b0319811690915581906001600160a01b03167f8be0079c531659141344cd1fd0a4f28419497f9722a3daafe3b4186f6b6457e08280a380f35b80fd5b346101ff575f3660031901126101ff576005546040516001600160a01b039091168152602090f35b346101ff5761135e366110e3565b905f5b828110611399576113728383611f2d565b337f27723878c9117cc80b5506f5da54dd4c668a554e9f659fc8f1ae428866564fc75f80a3005b906113ad6113a8838584611eeb565b611efb565b335f9081526009602052604090206113d9906113d5906113ce9084906111d7565b5460ff1690565b1590565b6114d557926114096113ff856111d73360018060a01b03165f52600960205260405f2090565b805460ff19169055565b335f908152600a602052604090206001600160a01b0390941693915f5b8354808210156114c657866114566102536114418589611253565b905460039190911b1c6001600160a01b031690565b1461146a575061146590611ed8565b611426565b61120a9296506114be949161149a61149361144161148d6114b9959a989a611f74565b86611253565b9184611253565b90919082549060031b9160018060a01b03809116831b921b1916179055565b611f92565b919091611361565b50509350916114be9150611ed8565b5091906114be90611ed8565b346101ff575f3660031901126101ff576004546040516001600160a01b039091168152602090f35b346101ff575f3660031901126101ff576003546040516001600160a01b039091168152602090f35b346101ff575f3660031901126101ff576001546040516001600160a01b039091168152602090f35b90600182811c92168015611587575b602083101461157357565b634e487b7160e01b5f52602260045260245ffd5b91607f1691611568565b9060405191825f8254926115a484611559565b9081845260019485811690815f1461160d57506001146115cd575b505061037c9250038361032f565b909391505f52602090815f20935f915b8183106115f557505061037c93508201015f806115bf565b855488840185015294850194879450918301916115dd565b91505061037c94506020925060ff191682840152151560051b8201015f806115bf565b346101ff5760203660031901126101ff576004355f52600b60205260405f2060018060a01b038154166110486001830154926116a7600282015491611683600461167c60038401611591565b9201611591565b9260405196879687526020870152604086015260a0606086015260a0850190610f26565b908382036080850152610f26565b6001600160801b038116036101ff57565b346101ff5760403660031901126101ff576100186024356116e6816116b5565b6004356134a8565b346101ff5760603660031901126101ff576001600160401b036004356024358281116101ff576117229036906004016103d8565b916044359081116101ff5761173b9036906004016103d8565b600554611750906001600160a01b0316610253565b60405163133f757160e31b815260048101849052909390610180908181602481895afa918215610271575f926117dc575b50506040516331a9108f60e11b81526004810185905294602090869060249082905afa93841561027157610018955f956117bc575b50613730565b6117d591955060203d8111610d7957610d6a818361032f565b935f6117b6565b6117f29250803d106110dc576110c0818361032f565b5050505096505050505050505f80611781565b346101ff5760403660031901126101ff57602060ff61185d600435611829816101ee565b60243590611836826101ee565b60018060a01b03165f526009845260405f209060018060a01b03165f5260205260405f2090565b54166040519015158152f35b346101ff5760a03660031901126101ff57600435611886816101ee565b60243590611893826101ee565b604435916118a0836101ee565b6064356118ac816101ee565b608435926118b9846101ee565b6118c1613c69565b6001600160a01b03948593849283919082168061198a575b501680611965575b501680611940575b50168061191b575b5016806118fa57005b600780546001600160a01b0319166001600160a01b03909216919091179055005b600580546001600160a01b0319166001600160a01b039092169190911790555f6118f1565b600680546001600160a01b0319166001600160a01b039092169190911790555f6118e9565b600480546001600160a01b0319166001600160a01b039092169190911790555f6118e1565b6001600160601b0360a01b60035416176003555f6118d9565b346101ff5760203660031901126101ff576004356119c0816101ee565b60018060a01b03165f526008602052602060405f2054604051908152f35b346101ff575f3660031901126101ff576006546040516001600160a01b039091168152602090f35b346101ff5760203660031901126101ff57600435600c548110156101ff57600c5f527fdf6966c971051c3d54ec59162606531493a51404a002842f56009d7e5cf4a8c701546040516001600160a01b039091168152602090f35b346101ff575f3660031901126101ff576007546040516001600160a01b039091168152602090f35b602090816040818301928281528551809452019301915f5b828110611aae575050505090565b83516001600160a01b031685529381019392810192600101611aa0565b346101ff575f80600319360112611325573381526020600a815260408220916040518092808554928381520194835280832092905b828210611b235761104885611b178189038261032f565b60405191829182611a88565b83546001600160a01b031686529485019460019384019390910190611b00565b346101ff5760c03660031901126101ff576084356001600160401b036044358183116101ff57611b78600493369085016103d8565b9160a4359081116101ff57611b9090369085016103d8565b9080151580611cc2575b611cb1576020611bfe94611be060405183810190611bd681611bc88460059064627974657360d81b81520190565b03601f19810183528261032f565b5190208235612318565b60405163db750a2d60e01b815296879283929060243590840161200c565b03815f7f00000000000000000000000000000000000000000000000000000000000000006001600160a01b03165af191821561027157611048945f93611c8f575b50611c7f9293611c4d61036f565b338152926020840152606435604084015260608301526080820152611c7a835f52600b60205260405f2090565b612198565b6040519081529081906020820190565b611c7f9350611cab9060203d81116102e1576102d2818361032f565b92611c3f565b60405163e426911b60e01b81528490fd5b50600554611cd8906001600160a01b0316610253565b6020604051809263020604bf60e21b82528180611cfc878b83019190602083019252565b03915afa908115610271575f91611d20575b506001600160a01b0316301415611b9a565b611d38915060203d8111610d7957610d6a818361032f565b5f611d0e565b346101ff5760403660031901126101ff57600435611d5b816101ee565b60243590611d67613c69565b6001600160a01b0390811680611d9157505f80809381936001541682821561027657f11561027157005b61001892916001541690613c95565b346101ff5760803660031901126101ff57602435600435611dc0826116b5565b6001600160401b03916044358381116101ff57611de19036906004016103d8565b6064359384116101ff57611dfb60249436906004016103d8565b91602060018060a01b0360055416604051968780926331a9108f60e11b82528860048301525afa93841561027157610018955f956117bc5750613730565b346101ff5760203660031901126101ff57600435611e56816101ee565b611e5e613c69565b6001600160a01b03908116908115611eac57600154826001600160601b0360a01b821617600155167f8be0079c531659141344cd1fd0a4f28419497f9722a3daafe3b4186f6b6457e05f80a3005b604051631e4fbdf760e01b81525f6004820152602490fd5b634e487b7160e01b5f52601160045260245ffd5b5f198114611ee65760010190565b611ec4565b91908110156112685760051b0190565b35610fa6816101ee565b9081549168010000000000000000831015610317578261149a91600161037c95018155611253565b60405191829182915f5b818110611f475750505003902090565b919350916001908435611f59816101ee565b828060a01b0316815260208091019401910191849392611f37565b5f19810191908211611ee657565b90612710918203918211611ee657565b80548015611fbe575f190190611fa88282611253565b81549060018060a01b039060031b1b1916905555565b634e487b7160e01b5f52603160045260245ffd5b519061037c826101ee565b908160209103126101ff5751610fa6816101ee565b6040513d5f823e3d90fd5b908160209103126101ff575190565b916080918352604060208401528051604084015260018060a01b03602082015116606084015263ffffffff60e01b60408201511682840152606081015160a084015201519060a060c082015261010060206120748451604060e0860152610120850190610f26565b93015191015290565b90601f811161208b57505050565b5f91825260208220906020601f850160051c830194106120c6575b601f0160051c01915b8281106120bb57505050565b8181556001016120af565b90925082906120a6565b91909182516001600160401b038111610317576120f7816120f18454611559565b8461207d565b602080601f83116001146121315750819293945f92612126575b50508160011b915f199060031b1c1916179055565b015190505f80612111565b90601f19831695612145855f5260205f2090565b925f905b88821061218057505083600195969710612168575b505050811b019055565b01515f1960f88460031b161c191690555f808061215e565b80600185968294968601518155019501930190612149565b815181546001600160a01b0319166001600160a01b03919091161781556020918281015192600193848401556040820151600284015560038301906060830151948551916001600160401b038311610317576121fe836121f88654611559565b8661207d565b80601f84116001146122465750918080608095936004979561037c9a5f9461223b575b50501b915f199060031b1c19161790555b015191016120d0565b015192505f80612221565b9193949596601f19841661225d875f5260205f2090565b935f905b8282106122a65750509260809592859261037c9a9996600499961061228e575b505050811b019055612232565b01515f1960f88460031b161c191690555f8080612281565b808886978294978701518155019601940190612261565b60405190604082018281106001600160401b03821117610317576040525f602083606081520152565b604051906122f3826102fc565b815f81525f60208201525f60408201525f606082015260806123136122bd565b910152565b6123206122e6565b915f525f60205260405f205460e01b906123386122e6565b5061012060808401516123496122bd565b5061010060208201526040518091525f815201604052825260018060a01b037f000000000000000000000000000000000000000000000000000000000000000016602083015263ffffffff60e01b16604082015290565b906103848201809211611ee657565b91908201809211611ee657565b906040516123c9816102fc565b60806123136004839560018060a01b038154168552600181015460208601526002810154604086015261102e60038201611591565b81601f820112156101ff578051612414816103bd565b92612422604051948561032f565b818452602082840101116101ff57610fa69160208085019101610f05565b519061ffff821682036101ff57565b519062ffffff821682036101ff57565b51908160020b82036101ff57565b519061037c826116b5565b9190826101809103126101ff5781516001600160601b03811681036101ff57916124a460208201611fd2565b916124b160408301611fd2565b916124be60608201611fd2565b916124cb6080830161244f565b916124d860a0820161245f565b916124e560c0830161245f565b916124f260e0820161246d565b916101008201519161012081015191610fa6610160612514610140850161246d565b930161246d565b80516001600160a01b03165f908152600a60205260409020909190541515806126f7575b6126e5575f906020918284019384519182612590575b815161037c965060409061257c906001600160a01b0316968601516001600160a01b031690565b9201519160a0608086015195015195612977565b6005546125a5906001600160a01b0316610253565b60405163133f757160e31b8152600481018590526101809790918890839060249082905afa9182156102715761263c98889185908690879388976126b4575b50506006546125fb906001600160a01b0316610253565b604051630b4c774160e11b81526001600160a01b03938416600482015292909116602483015262ffffff9092166044820152998a9190829081906064820190565b03915afa80156102715761037c988491612697575b50878701516001600160a01b03918216911603612670575b5050612555565b90915061268d929350519060608401516080850151913093613730565b905f915f80612669565b6126ae9150883d8a11610d7957610d6a818361032f565b5f612651565b92509250506126d0929450803d106110dc576110c0818361032f565b50505050955050509593509491945f806125e4565b604051637ea8977960e11b8152600490fd5b5081516001600160a01b039081165f9081526009602090815260408083208583015190941683529290522061272f906113d5906113ce565b61253f565b91906040835260046040840152635553444360e01b6060840152602060808401930152565b908160209103126101ff57610fa69061244f565b519081151582036101ff57565b908160209103126101ff57610fa69061276d565b908160609103126101ff5780516127a4816116b5565b916040602083015192015190565b908160e09103126101ff5780516127c8816101ee565b916127d56020830161245f565b916127e260408201612440565b916127ef60608301612440565b916127fc60808201612440565b9160a082015160ff811681036101ff5760c0610fa691930161276d565b908160209103126101ff57610fa69061245f565b60020b801561283e57620d89e80790565b634e487b7160e01b5f52601260045260245ffd5b9060020b90811561283e5760020b0790565b60020b620d89e80390627fffff198212627fffff831317611ee657565b600291820b910b0390627fffff198212627fffff831317611ee657565b60069060020b02908160020b918203611ee657565b91908260809103126101ff5781519160208101516128d0816116b5565b916060604083015192015190565b81516001600160a01b03168152610160810192916020818101516001600160a01b03169083015260408181015162ffffff169083015260608181015160020b9083015260808181015160020b9083015260a0818101519083015260c0808201519083015260e080820151908301526101008082015190830152610120808201516001600160a01b03169083015261014080910151910152565b9390959295949194811515806130c0575b610e30576003546129a1906001600160a01b0316610253565b6040516370a0823160e01b81526001600160a01b038781166004830152821690602081602481855afa8015610271578a915f916130a1575b501061308657604051636eb1769f60e11b81526001600160a01b038816600482015230602482015290602090829060449082905afa80156102715789915f91613067575b501061304c578780613039575b5050604051630dfe168160e01b81526001600160a01b03919091169690916020836004818b5afa928315610271575f93613018575b5060405163d21220a760e01b8152916020836004818c5afa928315610271575f93612ff7575b5060405163ddca3f4360e01b8152976020896004818d5afa988915610271575f99612fd0575b5090612ab6916123af565b908160011c95612ad061025360035460018060a01b031690565b6001600160a01b038616969088908803612fc1579050965b600354612afd906001600160a01b0316610253565b6001600160a01b03861692908303612fb15750955b600554612b27906001600160a01b0316610253565b604051636eb1769f60e11b81523060048201526001600160a01b0382166024820152909190602081604481855afa8015610271578a915f91612f92575b5010612f2f575b5050600554612b82906001600160a01b0316610253565b604051636eb1769f60e11b81523060048201526001600160a01b0382166024820152909190602081604481855afa80156102715788915f91612f10575b5010612ead575b505080612d8d575050604051633850c7bd60e01b81529260e0846004818b5afa938415610271575f94612d66575b506040516334324e9f60e21b8152946020866004818c5afa958615610271575f98608097612c9697612c3e938c92610a5f5750610896610890610887836108818661089b96612852565b60a084015260c083015260e08201869052610100820186905230610120830152610140820152600554612c79906001600160a01b0316610253565b90604051958680948193634418b22b60e11b8352600483016128de565b03925af1918215610271575f92612d43575b50600554612cbe906001600160a01b0316610253565b91823b156101ff57604051632142170760e11b81523060048201526001600160a01b039290921660248301526044820152905f908290606490829084905af1801561027157612d30575b50337fcd977a33d1b513eef5082a3e4ba733270eda2daa6b1908a552511708d1d1cb945f80a3565b80610a10612d3d9261031c565b5f612d08565b612d5c91925060803d8111610a4657610a35818361032f565b505050905f612ca8565b612d7f91945060e03d8111610ad057610aba818361032f565b50505050509050925f612bf4565b91509550612e3991505f9493606093612da5426123a0565b91612dae610350565b938452602084015260408301528382018690526080820186905260a0820152600554612de2906001600160a01b0316610253565b6040805163219f5d1760e01b81528351600482015260208401516024820152908301516044820152606083015160648201526080830151608482015260a09092015160a483015290948592839190829060c4820190565b03925af1908115610271577f625a0caccfd887185bf317fe606cf2c11f5250a80ad98259934f03d47d2b2f7d92612e8a92612e8f575b506040519384526001600160a01b0316929081906020820190565b0390a3565b612ea69060603d8111610bea57610bdb818361032f565b5050612e6f565b60405163095ea7b360e01b81526001600160a01b039290921660048301525f196024830152602090829060449082905f905af1801561027157612ef1575b80612bc6565b612f099060203d602011610c5f57610c50818361032f565b505f612eeb565b612f29915060203d6020116102e1576102d2818361032f565b5f612bbf565b60405163095ea7b360e01b81526001600160a01b039290921660048301525f196024830152602090829060449082905f905af1801561027157612f73575b80612b6b565b612f8b9060203d602011610c5f57610c50818361032f565b505f612f6d565b612fab915060203d6020116102e1576102d2818361032f565b5f612b64565b90612fbb916132d6565b95612b12565b612fca916132d6565b96612ae8565b612ab692919950612fef9060203d602011610d4857610d39818361032f565b989091612aab565b61301191935060203d602011610d7957610d6a818361032f565b915f612a85565b61303291935060203d602011610d7957610d6a818361032f565b915f612a5f565b61304591873091613ce4565b5f87612a2a565b604051633bb74ecf60e11b81528061058c8a60048301612734565b613080915060203d6020116102e1576102d2818361032f565b5f612a1d565b6040516332f58dad60e21b81528061058c8b60048301612734565b6130ba915060203d6020116102e1576102d2818361032f565b5f6129d9565b506005546130d6906001600160a01b0316610253565b60405163020604bf60e21b81526004810184905290602090829060249082905afa908115610271575f91613117575b506001600160a01b0316301415612988565b61312f915060203d8111610d7957610d6a818361032f565b5f613105565b6001600160401b0381116103175760051b60200190565b81601f820112156101ff5780519161316383613135565b92613171604051948561032f565b808452602092838086019260051b8201019283116101ff578301905b82821061319b575050505090565b815163ffffffff811681036101ff57815290830190830161318d565b6080818303126101ff5780519260209283830151936001600160401b03948581116101ff5784019082601f830112156101ff578151916131f683613135565b92613204604051948561032f565b808452828085019160051b830101918583116101ff578301905b82821061324a57505050509360408401519081116101ff5760609161324491850161314c565b92015190565b8380918351613258816101ee565b81520191019061321e565b92919061327a602091604086526040860190610f26565b930152565b81810292918115918404141715611ee657565b60208152608060606132af845183602086015260a0850190610f26565b60208501516001600160a01b03166040858101919091528501518285015293015191015290565b335f9081526008602052604090205461340257610190915b600754613303906001600160a01b0316610253565b915f604051809463cdca175360e01b8252818381613325888860048401613263565b03925af19182156102715761335e6133566133ab945f9760209789926133d8575b5061335090611f82565b9061327f565b612710900490565b9061336761039e565b92835230858401526040830152606082015260045461338e906001600160a01b0316610253565b9060405194858094819363b858183f60e01b835260048301613292565b03925af1908115610271575f916133c0575090565b610fa6915060203d81116102e1576102d2818361032f565b6133f89061335092933d8091833e6133f0818361032f565b8101906131b7565b5050509190613346565b335f90815260086020526040902054916132ee565b91908260409103126101ff576020825192015190565b91909160808060a0830194805184526001600160801b03602082015116602085015260408101516040850152606081015160608501520151910152565b919091606060808201938051835260018060a01b036020820151166020840152816001600160801b0391826040820151166040860152015116910152565b6005549091906134c0906001600160a01b0316610253565b604080516331a9108f60e11b80825260048083018790529295602095909491928681602481865afa908115610271575f91613713575b506001600160a01b03903390821603613703578751938452868480613522898983019190602083019252565b0381865afa938415610271575f946136e4575b508515159081613689575b50613679576135a15f959493928892613558426123a0565b61357761356361036f565b8981526001600160801b039093168b840152565b888583015288606083015260808201528351978880948193630624e65f60e11b835289830161342d565b03925af1908115610271576136219587956135d89361365d575b506135c461039e565b9485526001600160a01b0390911690840152565b6001600160801b03828401526001600160801b036060830152600554613606906001600160a01b0316610253565b905f845180968195829463fc6f786560e01b8452830161346a565b03925af1801561027157613633575050565b8161365292903d10613656575b61364a818361032f565b810190613417565b5050565b503d613640565b61367390873d89116136565761364a818361032f565b506135bb565b865163e426911b60e01b81528490fd5b885163020604bf60e21b81528681018881529092508890839081906020010381875afa918215610271575f926136c5575b50163014155f613540565b6136dd919250883d8a11610d7957610d6a818361032f565b905f6136ba565b6136fc919450873d8911610d7957610d6a818361032f565b925f613535565b87516319ef87bb60e31b81528590fd5b61372a9150873d8911610d7957610d6a818361032f565b5f6134f6565b600554929594939261374a906001600160a01b0316610253565b926040918251976331a9108f60e11b8952602095600495878b80613775878b83019190602083019252565b0381855afa9a8b15610271575f9b613c4a575b506001600160a01b039a33908c1603613c3a5783151580613be3575b613bd3576138015f9287926137b8426123a0565b6137d76137c361036f565b8981526001600160801b039093168d840152565b858583015285606083015260808201528351948580948193630624e65f60e11b83528d830161342d565b03925af1801561027157613bb7575b50600554613826906001600160a01b0316610253565b9484519463133f757160e31b86526101809384878061384c848783019190602083019252565b03818b5afa978815610271575f918a83998498859c613b6d575b50505f939285926138866138b99361387c61039e565b9283523090830152565b6001600160801b03818501526001600160801b036060820152835195868094819363fc6f786560e01b83528b830161346a565b03925af1918215610271578d92613b51575b508354911692906138e4906001600160a01b0316610253565b8251636eb1769f60e11b808252308483019081526001600160a01b0384166020820152909a919792949291908c90899081906040010381895afa978815610271578f90958d965f9a613b32575b506001600160801b03809416809a10613ac4575b5084549a169b8c9b61398f9b613963906001600160a01b0316610253565b8551918252308783019081526001600160a01b0382166020820152909e919c8d92918391829160400190565b03915afa998a15610271575f9a613aa5575b5016809810613a3f575b5050600354613a0398506139c891506001600160a01b0316610253565b14613a3857906139d7916132d6565b925b6003546139ee906001600160a01b0316610253565b14613a3157906139fd916132d6565b906123af565b80933090831603613a12575050565b60035461037c9290613a2c906001600160a01b0316610253565b613c95565b50906123af565b50926139d9565b5163095ea7b360e01b81526001600160a01b039099169089019081525f19602082015281908990819060400103815f8b5af197881561027157613a0398613a87575b806139ab565b81613a9d92903d10610c5f57610c50818361032f565b505f80613a81565b613abd919a50853d87116102e1576102d2818361032f565b985f6139a1565b845163095ea7b360e01b81526001600160a01b039091168682019081525f196020820152909691508690819060400103815f8a5af1948515610271578f909a61398f9b8e97613b15575b509a613945565b613b2b90883d8a11610c5f57610c50818361032f565b505f613b0e565b613b4a919a50873d89116102e1576102d2818361032f565b985f613931565b613b6790843d86116136565761364a818361032f565b506138cb565b6138b9929c506138869b50869399505f95509081613b9692903d106110dc576110c0818361032f565b9a50985050505050505095929a919c90959c9a9d9350509281949550613866565b613bcd90853d87116136565761364a818361032f565b50613810565b855163e426911b60e01b81528790fd5b50855163020604bf60e21b81528781018581528990829081906020010381865afa908115610271575f91613c1d575b508b163014156137a4565b613c349150893d8b11610d7957610d6a818361032f565b5f613c12565b85516319ef87bb60e31b81528790fd5b613c62919b50883d8a11610d7957610d6a818361032f565b995f613788565b6001546001600160a01b03163303613c7d57565b60405163118cdaa760e01b8152336004820152602490fd5b60405163a9059cbb60e01b60208201526001600160a01b03909216602483015260448083019390935291815260808101916001600160401b038311828410176103175761037c92604052613d28565b6040516323b872dd60e01b60208201526001600160a01b03928316602482015292909116604483015260648083019390935291815261037c91613d2860848361032f565b5f80613d709260018060a01b03169360208151910182865af13d15613dc7573d90613d52826103bd565b91613d60604051938461032f565b82523d5f602084013e5b83613dcf565b8051908115159182613da9575b5050613d865750565b604051635274afe760e01b81526001600160a01b03919091166004820152602490fd5b613dc09250906020806113d593830101910161277a565b5f80613d7d565b606090613d6a565b90613df65750805115613de457805190602001fd5b604051630a12f52160e11b8152600490fd5b81511580613e29575b613e07575090565b604051639996b31560e01b81526001600160a01b039091166004820152602490fd5b50803b15613dff56fea264697066735822122059423d9624e0faca7f57242344f6bf2da5b941254ed16df13fb05695c224935b64736f6c63430008140033",
    "linkReferences": {}
  },
  "methodIdentifiers": {
    "COORDINATOR()": "3b2bcbf1",
    "USDC()": "89a30271",
    "addLiquidity(uint256,uint256,address,bytes,bytes)": "22d190f2",
    "addPoolsToWhitelist(address[])": "4fa1bf25",
    "arrayUserWhitelistPools(address,uint256)": "684b737e",
    "changeConfig(address,address,address,address,address)": "ae0ddecc",
    "factory()": "c45a0155",
    "getInfoRequest(uint256)": "45b59b77",
    "getUserWhitelistedPools()": "e3b5f5a5",
    "mapUserWhitelistPools(address,address)": "aca18ba5",
    "owner()": "8da5cb5b",
    "positionManager()": "791b98bc",
    "quoterV2()": "e20dccb2",
    "rawFulfillDataRequest(uint256,bytes)": "19e2cd2f",
    "removeLiquidity(uint256,uint128)": "911757ba",
    "removeLiquidityAll(uint256)": "46723c6d",
    "removeLiquidityAllToUSDC(uint256,bytes,bytes)": "a49e83c7",
    "removeLiquidityToUSDC(uint256,uint128,bytes,bytes)": "f278fd63",
    "removePoolsFromWhitelist(address[])": "7e69a00d",
    "renounceOwnership()": "715018a6",
    "requestIdUser(uint256)": "90b5bafc",
    "requestSmartFarming(bytes32,uint256,uint256,uint256,bytes,bytes)": "ef6af8d6",
    "setSlippageSwap(uint256)": "5354c8f1",
    "swapRouter02()": "7eaf1116",
    "transferOwnership(address)": "f2fde38b",
    "userSlippageSwap(address)": "b46ed2fd",
    "usersFarming(uint256)": "dd9ff698",
    "withdrawAllAssets(address)": "10691775",
    "withdrawAssets(address,uint256)": "efb65e89"
  },
  "id": 44
}